{
  "_format": "hh-sol-artifact-1",
  "contractName": "CredencialAlumno",
  "sourceName": "contracts/CredencialAlumno.sol",
  "abi": [
    {
      "inputs": [
        {
          "internalType": "string",
          "name": "name",
          "type": "string"
        },
        {
          "internalType": "string",
          "name": "symbol",
          "type": "string"
        },
        {
          "internalType": "address",
          "name": "initialOwner",
          "type": "address"
        }
      ],
      "stateMutability": "nonpayable",
      "type": "constructor"
    },
    {
      "anonymous": false,
      "inputs": [
        {
          "indexed": true,
          "internalType": "address",
          "name": "owner",
          "type": "address"
        },
        {
          "indexed": true,
          "internalType": "address",
          "name": "approved",
          "type": "address"
        },
        {
          "indexed": true,
          "internalType": "uint256",
          "name": "tokenId",
          "type": "uint256"
        }
      ],
      "name": "Approval",
      "type": "event"
    },
    {
      "anonymous": false,
      "inputs": [
        {
          "indexed": true,
          "internalType": "address",
          "name": "owner",
          "type": "address"
        },
        {
          "indexed": true,
          "internalType": "address",
          "name": "operator",
          "type": "address"
        },
        {
          "indexed": false,
          "internalType": "bool",
          "name": "approved",
          "type": "bool"
        }
      ],
      "name": "ApprovalForAll",
      "type": "event"
    },
    {
      "anonymous": false,
      "inputs": [
        {
          "indexed": false,
          "internalType": "uint256",
          "name": "_fromTokenId",
          "type": "uint256"
        },
        {
          "indexed": false,
          "internalType": "uint256",
          "name": "_toTokenId",
          "type": "uint256"
        }
      ],
      "name": "BatchMetadataUpdate",
      "type": "event"
    },
    {
      "anonymous": false,
      "inputs": [
        {
          "indexed": true,
          "internalType": "address",
          "name": "alumno",
          "type": "address"
        },
        {
          "indexed": true,
          "internalType": "uint256",
          "name": "tokenId",
          "type": "uint256"
        },
        {
          "indexed": false,
          "internalType": "string",
          "name": "uri",
          "type": "string"
        }
      ],
      "name": "CredencialEmitida",
      "type": "event"
    },
    {
      "anonymous": false,
      "inputs": [
        {
          "indexed": true,
          "internalType": "uint256",
          "name": "tokenId",
          "type": "uint256"
        }
      ],
      "name": "CredencialRevocada",
      "type": "event"
    },
    {
      "anonymous": false,
      "inputs": [
        {
          "indexed": false,
          "internalType": "uint256",
          "name": "_tokenId",
          "type": "uint256"
        }
      ],
      "name": "MetadataUpdate",
      "type": "event"
    },
    {
      "anonymous": false,
      "inputs": [
        {
          "indexed": true,
          "internalType": "address",
          "name": "previousOwner",
          "type": "address"
        },
        {
          "indexed": true,
          "internalType": "address",
          "name": "newOwner",
          "type": "address"
        }
      ],
      "name": "OwnershipTransferred",
      "type": "event"
    },
    {
      "anonymous": false,
      "inputs": [
        {
          "indexed": true,
          "internalType": "address",
          "name": "from",
          "type": "address"
        },
        {
          "indexed": true,
          "internalType": "address",
          "name": "to",
          "type": "address"
        },
        {
          "indexed": true,
          "internalType": "uint256",
          "name": "tokenId",
          "type": "uint256"
        }
      ],
      "name": "Transfer",
      "type": "event"
    },
    {
      "inputs": [
        {
          "internalType": "address",
          "name": "to",
          "type": "address"
        },
        {
          "internalType": "uint256",
          "name": "tokenId",
          "type": "uint256"
        }
      ],
      "name": "approve",
      "outputs": [],
      "stateMutability": "nonpayable",
      "type": "function"
    },
    {
      "inputs": [
        {
          "internalType": "address",
          "name": "owner",
          "type": "address"
        }
      ],
      "name": "balanceOf",
      "outputs": [
        {
          "internalType": "uint256",
          "name": "",
          "type": "uint256"
        }
      ],
      "stateMutability": "view",
      "type": "function"
    },
    {
      "inputs": [
        {
          "internalType": "address",
          "name": "alumno",
          "type": "address"
        },
        {
          "internalType": "string",
          "name": "uri",
          "type": "string"
        }
      ],
      "name": "emitirCredencial",
      "outputs": [
        {
          "internalType": "uint256",
          "name": "",
          "type": "uint256"
        }
      ],
      "stateMutability": "nonpayable",
      "type": "function"
    },
    {
      "inputs": [
        {
          "internalType": "uint256",
          "name": "tokenId",
          "type": "uint256"
        }
      ],
      "name": "getApproved",
      "outputs": [
        {
          "internalType": "address",
          "name": "",
          "type": "address"
        }
      ],
      "stateMutability": "view",
      "type": "function"
    },
    {
      "inputs": [
        {
          "internalType": "address",
          "name": "owner",
          "type": "address"
        },
        {
          "internalType": "address",
          "name": "operator",
          "type": "address"
        }
      ],
      "name": "isApprovedForAll",
      "outputs": [
        {
          "internalType": "bool",
          "name": "",
          "type": "bool"
        }
      ],
      "stateMutability": "view",
      "type": "function"
    },
    {
      "inputs": [],
      "name": "name",
      "outputs": [
        {
          "internalType": "string",
          "name": "",
          "type": "string"
        }
      ],
      "stateMutability": "view",
      "type": "function"
    },
    {
      "inputs": [],
      "name": "owner",
      "outputs": [
        {
          "internalType": "address",
          "name": "",
          "type": "address"
        }
      ],
      "stateMutability": "view",
      "type": "function"
    },
    {
      "inputs": [
        {
          "internalType": "uint256",
          "name": "tokenId",
          "type": "uint256"
        }
      ],
      "name": "ownerOf",
      "outputs": [
        {
          "internalType": "address",
          "name": "",
          "type": "address"
        }
      ],
      "stateMutability": "view",
      "type": "function"
    },
    {
      "inputs": [],
      "name": "renounceOwnership",
      "outputs": [],
      "stateMutability": "nonpayable",
      "type": "function"
    },
    {
      "inputs": [
        {
          "internalType": "uint256",
          "name": "tokenId",
          "type": "uint256"
        }
      ],
      "name": "revocarCredencial",
      "outputs": [],
      "stateMutability": "nonpayable",
      "type": "function"
    },
    {
      "inputs": [
        {
          "internalType": "address",
          "name": "from",
          "type": "address"
        },
        {
          "internalType": "address",
          "name": "to",
          "type": "address"
        },
        {
          "internalType": "uint256",
          "name": "tokenId",
          "type": "uint256"
        }
      ],
      "name": "safeTransferFrom",
      "outputs": [],
      "stateMutability": "nonpayable",
      "type": "function"
    },
    {
      "inputs": [
        {
          "internalType": "address",
          "name": "from",
          "type": "address"
        },
        {
          "internalType": "address",
          "name": "to",
          "type": "address"
        },
        {
          "internalType": "uint256",
          "name": "tokenId",
          "type": "uint256"
        },
        {
          "internalType": "bytes",
          "name": "data",
          "type": "bytes"
        }
      ],
      "name": "safeTransferFrom",
      "outputs": [],
      "stateMutability": "nonpayable",
      "type": "function"
    },
    {
      "inputs": [
        {
          "internalType": "address",
          "name": "operator",
          "type": "address"
        },
        {
          "internalType": "bool",
          "name": "approved",
          "type": "bool"
        }
      ],
      "name": "setApprovalForAll",
      "outputs": [],
      "stateMutability": "nonpayable",
      "type": "function"
    },
    {
      "inputs": [
        {
          "internalType": "bytes4",
          "name": "interfaceId",
          "type": "bytes4"
        }
      ],
      "name": "supportsInterface",
      "outputs": [
        {
          "internalType": "bool",
          "name": "",
          "type": "bool"
        }
      ],
      "stateMutability": "view",
      "type": "function"
    },
    {
      "inputs": [],
      "name": "symbol",
      "outputs": [
        {
          "internalType": "string",
          "name": "",
          "type": "string"
        }
      ],
      "stateMutability": "view",
      "type": "function"
    },
    {
      "inputs": [
        {
          "internalType": "uint256",
          "name": "tokenId",
          "type": "uint256"
        }
      ],
      "name": "tokenURI",
      "outputs": [
        {
          "internalType": "string",
          "name": "",
          "type": "string"
        }
      ],
      "stateMutability": "view",
      "type": "function"
    },
    {
      "inputs": [
        {
          "internalType": "address",
          "name": "from",
          "type": "address"
        },
        {
          "internalType": "address",
          "name": "to",
          "type": "address"
        },
        {
          "internalType": "uint256",
          "name": "tokenId",
          "type": "uint256"
        }
      ],
      "name": "transferFrom",
      "outputs": [],
      "stateMutability": "nonpayable",
      "type": "function"
    },
    {
      "inputs": [
        {
          "internalType": "address",
          "name": "newOwner",
          "type": "address"
        }
      ],
      "name": "transferOwnership",
      "outputs": [],
      "stateMutability": "nonpayable",
      "type": "function"
    }
  ],
  "bytecode": "0x608060405234801561001057600080fd5b50604051613cca380380613cca8339818101604052810190610032919061046d565b828281600090816100439190610719565b5080600190816100539190610719565b50505061007261006761008960201b60201c565b61009160201b60201c565b6100818161015760201b60201c565b5050506108fa565b600033905090565b6000600760009054906101000a900473ffffffffffffffffffffffffffffffffffffffff16905081600760006101000a81548173ffffffffffffffffffffffffffffffffffffffff021916908373ffffffffffffffffffffffffffffffffffffffff1602179055508173ffffffffffffffffffffffffffffffffffffffff168173ffffffffffffffffffffffffffffffffffffffff167f8be0079c531659141344cd1fd0a4f28419497f9722a3daafe3b4186f6b6457e060405160405180910390a35050565b6101656101e660201b60201c565b600073ffffffffffffffffffffffffffffffffffffffff168173ffffffffffffffffffffffffffffffffffffffff16036101d4576040517f08c379a00000000000000000000000000000000000000000000000000000000081526004016101cb9061086e565b60405180910390fd5b6101e38161009160201b60201c565b50565b6101f461008960201b60201c565b73ffffffffffffffffffffffffffffffffffffffff1661021861027060201b60201c565b73ffffffffffffffffffffffffffffffffffffffff161461026e576040517f08c379a0000000000000000000000000000000000000000000000000000000008152600401610265906108da565b60405180910390fd5b565b6000600760009054906101000a900473ffffffffffffffffffffffffffffffffffffffff16905090565b6000604051905090565b600080fd5b600080fd5b600080fd5b600080fd5b6000601f19601f8301169050919050565b7f4e487b7100000000000000000000000000000000000000000000000000000000600052604160045260246000fd5b610301826102b8565b810181811067ffffffffffffffff821117156103205761031f6102c9565b5b80604052505050565b600061033361029a565b905061033f82826102f8565b919050565b600067ffffffffffffffff82111561035f5761035e6102c9565b5b610368826102b8565b9050602081019050919050565b60005b83811015610393578082015181840152602081019050610378565b60008484015250505050565b60006103b26103ad84610344565b610329565b9050828152602081018484840111156103ce576103cd6102b3565b5b6103d9848285610375565b509392505050565b600082601f8301126103f6576103f56102ae565b5b815161040684826020860161039f565b91505092915050565b600073ffffffffffffffffffffffffffffffffffffffff82169050919050565b600061043a8261040f565b9050919050565b61044a8161042f565b811461045557600080fd5b50565b60008151905061046781610441565b92915050565b600080600060608486031215610486576104856102a4565b5b600084015167ffffffffffffffff8111156104a4576104a36102a9565b5b6104b0868287016103e1565b935050602084015167ffffffffffffffff8111156104d1576104d06102a9565b5b6104dd868287016103e1565b92505060406104ee86828701610458565b9150509250925092565b600081519050919050565b7f4e487b7100000000000000000000000000000000000000000000000000000000600052602260045260246000fd5b6000600282049050600182168061054a57607f821691505b60208210810361055d5761055c610503565b5b50919050565b60008190508160005260206000209050919050565b60006020601f8301049050919050565b600082821b905092915050565b6000600883026105c57fffffffffffffffffffffffffffffffffffffffffffffffffffffffffffffffff82610588565b6105cf8683610588565b95508019841693508086168417925050509392505050565b6000819050919050565b6000819050919050565b600061061661061161060c846105e7565b6105f1565b6105e7565b9050919050565b6000819050919050565b610630836105fb565b61064461063c8261061d565b848454610595565b825550505050565b600090565b61065961064c565b610664818484610627565b505050565b5b818110156106885761067d600082610651565b60018101905061066a565b5050565b601f8211156106cd5761069e81610563565b6106a784610578565b810160208510156106b6578190505b6106ca6106c285610578565b830182610669565b50505b505050565b600082821c905092915050565b60006106f0600019846008026106d2565b1980831691505092915050565b600061070983836106df565b9150826002028217905092915050565b610722826104f8565b67ffffffffffffffff81111561073b5761073a6102c9565b5b6107458254610532565b61075082828561068c565b600060209050601f8311600181146107835760008415610771578287015190505b61077b85826106fd565b8655506107e3565b601f19841661079186610563565b60005b828110156107b957848901518255600182019150602085019450602081019050610794565b868310156107d657848901516107d2601f8916826106df565b8355505b6001600288020188555050505b505050505050565b600082825260208201905092915050565b7f4f776e61626c653a206e6577206f776e657220697320746865207a65726f206160008201527f6464726573730000000000000000000000000000000000000000000000000000602082015250565b60006108586026836107eb565b9150610863826107fc565b604082019050919050565b600060208201905081810360008301526108878161084b565b9050919050565b7f4f776e61626c653a2063616c6c6572206973206e6f7420746865206f776e6572600082015250565b60006108c46020836107eb565b91506108cf8261088e565b602082019050919050565b600060208201905081810360008301526108f3816108b7565b9050919050565b6133c1806109096000396000f3fe608060405234801561001057600080fd5b50600436106101165760003560e01c8063715018a6116100a2578063b88d4fde11610071578063b88d4fde146102df578063c87b56dd146102fb578063e985e9c51461032b578063f2fde38b1461035b578063f30e79d11461037757610116565b8063715018a61461027d5780638da5cb5b1461028757806395d89b41146102a5578063a22cb465146102c357610116565b806315e5f713116100e957806315e5f713146101b557806323b872dd146101e557806342842e0e146102015780636352211e1461021d57806370a082311461024d57610116565b806301ffc9a71461011b57806306fdde031461014b578063081812fc14610169578063095ea7b314610199575b600080fd5b6101356004803603810190610130919061208e565b610393565b60405161014291906120d6565b60405180910390f35b6101536103a5565b6040516101609190612181565b60405180910390f35b610183600480360381019061017e91906121d9565b610437565b6040516101909190612247565b60405180910390f35b6101b360048036038101906101ae919061228e565b61047d565b005b6101cf60048036038101906101ca9190612403565b610594565b6040516101dc919061246e565b60405180910390f35b6101ff60048036038101906101fa9190612489565b610623565b005b61021b60048036038101906102169190612489565b610683565b005b610237600480360381019061023291906121d9565b6106a3565b6040516102449190612247565b60405180910390f35b610267600480360381019061026291906124dc565b610729565b604051610274919061246e565b60405180910390f35b6102856107e0565b005b61028f6107f4565b60405161029c9190612247565b60405180910390f35b6102ad61081e565b6040516102ba9190612181565b60405180910390f35b6102dd60048036038101906102d89190612535565b6108b0565b005b6102f960048036038101906102f49190612616565b6108c6565b005b610315600480360381019061031091906121d9565b610928565b6040516103229190612181565b60405180910390f35b61034560048036038101906103409190612699565b61093a565b60405161035291906120d6565b60405180910390f35b610375600480360381019061037091906124dc565b6109ce565b005b610391600480360381019061038c91906121d9565b610a51565b005b600061039e82610ada565b9050919050565b6060600080546103b490612708565b80601f01602080910402602001604051908101604052809291908181526020018280546103e090612708565b801561042d5780601f106104025761010080835404028352916020019161042d565b820191906000526020600020905b81548152906001019060200180831161041057829003601f168201915b5050505050905090565b600061044282610b3b565b6004600083815260200190815260200160002060009054906101000a900473ffffffffffffffffffffffffffffffffffffffff169050919050565b6000610488826106a3565b90508073ffffffffffffffffffffffffffffffffffffffff168373ffffffffffffffffffffffffffffffffffffffff16036104f8576040517f08c379a00000000000000000000000000000000000000000000000000000000081526004016104ef906127ab565b60405180910390fd5b8073ffffffffffffffffffffffffffffffffffffffff16610517610b86565b73ffffffffffffffffffffffffffffffffffffffff161480610546575061054581610540610b86565b61093a565b5b610585576040517f08c379a000000000000000000000000000000000000000000000000000000000815260040161057c9061283d565b60405180910390fd5b61058f8383610b8e565b505050565b600061059e610c47565b6105a86008610cc5565b60006105b46008610cdb565b90506105c08482610ce9565b6105ca8184610d07565b808473ffffffffffffffffffffffffffffffffffffffff167facc094a6e9ac40cbdee1e383fcfcee6d580caa543f17322471edd945b610bf23856040516106119190612181565b60405180910390a38091505092915050565b61063461062e610b86565b82610dab565b610673576040517f08c379a000000000000000000000000000000000000000000000000000000000815260040161066a906128cf565b60405180910390fd5b61067e838383610e40565b505050565b61069e838383604051806020016040528060008152506108c6565b505050565b6000806106af83611139565b9050600073ffffffffffffffffffffffffffffffffffffffff168173ffffffffffffffffffffffffffffffffffffffff1603610720576040517f08c379a00000000000000000000000000000000000000000000000000000000081526004016107179061293b565b60405180910390fd5b80915050919050565b60008073ffffffffffffffffffffffffffffffffffffffff168273ffffffffffffffffffffffffffffffffffffffff1603610799576040517f08c379a0000000000000000000000000000000000000000000000000000000008152600401610790906129cd565b60405180910390fd5b600360008373ffffffffffffffffffffffffffffffffffffffff1673ffffffffffffffffffffffffffffffffffffffff168152602001908152602001600020549050919050565b6107e8610c47565b6107f26000611176565b565b6000600760009054906101000a900473ffffffffffffffffffffffffffffffffffffffff16905090565b60606001805461082d90612708565b80601f016020809104026020016040519081016040528092919081815260200182805461085990612708565b80156108a65780601f1061087b576101008083540402835291602001916108a6565b820191906000526020600020905b81548152906001019060200180831161088957829003601f168201915b5050505050905090565b6108c26108bb610b86565b838361123c565b5050565b6108d76108d1610b86565b83610dab565b610916576040517f08c379a000000000000000000000000000000000000000000000000000000000815260040161090d906128cf565b60405180910390fd5b610922848484846113a8565b50505050565b606061093382611404565b9050919050565b6000600560008473ffffffffffffffffffffffffffffffffffffffff1673ffffffffffffffffffffffffffffffffffffffff16815260200190815260200160002060008373ffffffffffffffffffffffffffffffffffffffff1673ffffffffffffffffffffffffffffffffffffffff16815260200190815260200160002060009054906101000a900460ff16905092915050565b6109d6610c47565b600073ffffffffffffffffffffffffffffffffffffffff168173ffffffffffffffffffffffffffffffffffffffff1603610a45576040517f08c379a0000000000000000000000000000000000000000000000000000000008152600401610a3c90612a5f565b60405180910390fd5b610a4e81611176565b50565b610a59610c47565b610a6281611516565b610aa1576040517f08c379a0000000000000000000000000000000000000000000000000000000008152600401610a9890612af1565b60405180910390fd5b610aaa81611557565b807fa2b7b35280c12ee1dda202fe466c9ddcc9cf416aeec84d267936398090f96f2a60405160405180910390a250565b6000634906490660e01b7bffffffffffffffffffffffffffffffffffffffffffffffffffffffff1916827bffffffffffffffffffffffffffffffffffffffffffffffffffffffff19161480610b345750610b3382611563565b5b9050919050565b610b4481611516565b610b83576040517f08c379a0000000000000000000000000000000000000000000000000000000008152600401610b7a9061293b565b60405180910390fd5b50565b600033905090565b816004600083815260200190815260200160002060006101000a81548173ffffffffffffffffffffffffffffffffffffffff021916908373ffffffffffffffffffffffffffffffffffffffff160217905550808273ffffffffffffffffffffffffffffffffffffffff16610c01836106a3565b73ffffffffffffffffffffffffffffffffffffffff167f8c5be1e5ebec7d5bd14f71427d1e84f3dd0314c0f7b2291e5b200ac8c7c3b92560405160405180910390a45050565b610c4f610b86565b73ffffffffffffffffffffffffffffffffffffffff16610c6d6107f4565b73ffffffffffffffffffffffffffffffffffffffff1614610cc3576040517f08c379a0000000000000000000000000000000000000000000000000000000008152600401610cba90612b5d565b60405180910390fd5b565b6001816000016000828254019250508190555050565b600081600001549050919050565b610d03828260405180602001604052806000815250611645565b5050565b610d1082611516565b610d4f576040517f08c379a0000000000000000000000000000000000000000000000000000000008152600401610d4690612bef565b60405180910390fd5b80600660008481526020019081526020016000209081610d6f9190612dbb565b507ff8e1a15aba9398e019f0b49df1a4fde98ee17ae345cb5f6b5e2c27f5033e8ce782604051610d9f919061246e565b60405180910390a15050565b600080610db7836106a3565b90508073ffffffffffffffffffffffffffffffffffffffff168473ffffffffffffffffffffffffffffffffffffffff161480610df95750610df8818561093a565b5b80610e3757508373ffffffffffffffffffffffffffffffffffffffff16610e1f84610437565b73ffffffffffffffffffffffffffffffffffffffff16145b91505092915050565b8273ffffffffffffffffffffffffffffffffffffffff16610e60826106a3565b73ffffffffffffffffffffffffffffffffffffffff1614610eb6576040517f08c379a0000000000000000000000000000000000000000000000000000000008152600401610ead90612eff565b60405180910390fd5b600073ffffffffffffffffffffffffffffffffffffffff168273ffffffffffffffffffffffffffffffffffffffff1603610f25576040517f08c379a0000000000000000000000000000000000000000000000000000000008152600401610f1c90612f91565b60405180910390fd5b610f3283838360016116a0565b8273ffffffffffffffffffffffffffffffffffffffff16610f52826106a3565b73ffffffffffffffffffffffffffffffffffffffff1614610fa8576040517f08c379a0000000000000000000000000000000000000000000000000000000008152600401610f9f90612eff565b60405180910390fd5b6004600082815260200190815260200160002060006101000a81549073ffffffffffffffffffffffffffffffffffffffff02191690556001600360008573ffffffffffffffffffffffffffffffffffffffff1673ffffffffffffffffffffffffffffffffffffffff168152602001908152602001600020600082825403925050819055506001600360008473ffffffffffffffffffffffffffffffffffffffff1673ffffffffffffffffffffffffffffffffffffffff16815260200190815260200160002060008282540192505081905550816002600083815260200190815260200160002060006101000a81548173ffffffffffffffffffffffffffffffffffffffff021916908373ffffffffffffffffffffffffffffffffffffffff160217905550808273ffffffffffffffffffffffffffffffffffffffff168473ffffffffffffffffffffffffffffffffffffffff167fddf252ad1be2c89b69c2b068fc378daa952ba7f163c4a11628f55a4df523b3ef60405160405180910390a46111348383836001611721565b505050565b60006002600083815260200190815260200160002060009054906101000a900473ffffffffffffffffffffffffffffffffffffffff169050919050565b6000600760009054906101000a900473ffffffffffffffffffffffffffffffffffffffff16905081600760006101000a81548173ffffffffffffffffffffffffffffffffffffffff021916908373ffffffffffffffffffffffffffffffffffffffff1602179055508173ffffffffffffffffffffffffffffffffffffffff168173ffffffffffffffffffffffffffffffffffffffff167f8be0079c531659141344cd1fd0a4f28419497f9722a3daafe3b4186f6b6457e060405160405180910390a35050565b8173ffffffffffffffffffffffffffffffffffffffff168373ffffffffffffffffffffffffffffffffffffffff16036112aa576040517f08c379a00000000000000000000000000000000000000000000000000000000081526004016112a190612ffd565b60405180910390fd5b80600560008573ffffffffffffffffffffffffffffffffffffffff1673ffffffffffffffffffffffffffffffffffffffff16815260200190815260200160002060008473ffffffffffffffffffffffffffffffffffffffff1673ffffffffffffffffffffffffffffffffffffffff16815260200190815260200160002060006101000a81548160ff0219169083151502179055508173ffffffffffffffffffffffffffffffffffffffff168373ffffffffffffffffffffffffffffffffffffffff167f17307eab39ab6107e8899845ad3d59bd9653f200f220920489ca2b5937696c318360405161139b91906120d6565b60405180910390a3505050565b6113b3848484610e40565b6113bf84848484611727565b6113fe576040517f08c379a00000000000000000000000000000000000000000000000000000000081526004016113f59061308f565b60405180910390fd5b50505050565b606061140f82610b3b565b600060066000848152602001908152602001600020805461142f90612708565b80601f016020809104026020016040519081016040528092919081815260200182805461145b90612708565b80156114a85780601f1061147d576101008083540402835291602001916114a8565b820191906000526020600020905b81548152906001019060200180831161148b57829003601f168201915b5050505050905060006114b96118ae565b905060008151036114ce578192505050611511565b6000825111156115035780826040516020016114eb9291906130eb565b60405160208183030381529060405292505050611511565b61150c846118eb565b925050505b919050565b60008073ffffffffffffffffffffffffffffffffffffffff1661153883611139565b73ffffffffffffffffffffffffffffffffffffffff1614159050919050565b61156081611953565b50565b60007f80ac58cd000000000000000000000000000000000000000000000000000000007bffffffffffffffffffffffffffffffffffffffffffffffffffffffff1916827bffffffffffffffffffffffffffffffffffffffffffffffffffffffff1916148061162e57507f5b5e139f000000000000000000000000000000000000000000000000000000007bffffffffffffffffffffffffffffffffffffffffffffffffffffffff1916827bffffffffffffffffffffffffffffffffffffffffffffffffffffffff1916145b8061163e575061163d826119a6565b5b9050919050565b61164f8383611a10565b61165c6000848484611727565b61169b576040517f08c379a00000000000000000000000000000000000000000000000000000000081526004016116929061308f565b60405180910390fd5b505050565b600073ffffffffffffffffffffffffffffffffffffffff168473ffffffffffffffffffffffffffffffffffffffff161461170f576040517f08c379a000000000000000000000000000000000000000000000000000000000815260040161170690613181565b60405180910390fd5b61171b84848484611c2d565b50505050565b50505050565b60006117488473ffffffffffffffffffffffffffffffffffffffff16611c33565b156118a1578373ffffffffffffffffffffffffffffffffffffffff1663150b7a02611771610b86565b8786866040518563ffffffff1660e01b815260040161179394939291906131f6565b6020604051808303816000875af19250505080156117cf57506040513d601f19601f820116820180604052508101906117cc9190613257565b60015b611851573d80600081146117ff576040519150601f19603f3d011682016040523d82523d6000602084013e611804565b606091505b506000815103611849576040517f08c379a00000000000000000000000000000000000000000000000000000000081526004016118409061308f565b60405180910390fd5b805181602001fd5b63150b7a0260e01b7bffffffffffffffffffffffffffffffffffffffffffffffffffffffff1916817bffffffffffffffffffffffffffffffffffffffffffffffffffffffff1916149150506118a6565b600190505b949350505050565b60606040518060400160405280600781526020017f697066733a2f2f00000000000000000000000000000000000000000000000000815250905090565b60606118f682610b3b565b60006119006118ae565b90506000815111611920576040518060200160405280600081525061194b565b8061192a84611c56565b60405160200161193b9291906130eb565b6040516020818303038152906040525b915050919050565b61195c81611d24565b600060066000838152602001908152602001600020805461197c90612708565b9050146119a3576006600082815260200190815260200160002060006119a29190611fc5565b5b50565b60007f01ffc9a7000000000000000000000000000000000000000000000000000000007bffffffffffffffffffffffffffffffffffffffffffffffffffffffff1916827bffffffffffffffffffffffffffffffffffffffffffffffffffffffff1916149050919050565b600073ffffffffffffffffffffffffffffffffffffffff168273ffffffffffffffffffffffffffffffffffffffff1603611a7f576040517f08c379a0000000000000000000000000000000000000000000000000000000008152600401611a76906132d0565b60405180910390fd5b611a8881611516565b15611ac8576040517f08c379a0000000000000000000000000000000000000000000000000000000008152600401611abf9061333c565b60405180910390fd5b611ad66000838360016116a0565b611adf81611516565b15611b1f576040517f08c379a0000000000000000000000000000000000000000000000000000000008152600401611b169061333c565b60405180910390fd5b6001600360008473ffffffffffffffffffffffffffffffffffffffff1673ffffffffffffffffffffffffffffffffffffffff16815260200190815260200160002060008282540192505081905550816002600083815260200190815260200160002060006101000a81548173ffffffffffffffffffffffffffffffffffffffff021916908373ffffffffffffffffffffffffffffffffffffffff160217905550808273ffffffffffffffffffffffffffffffffffffffff16600073ffffffffffffffffffffffffffffffffffffffff167fddf252ad1be2c89b69c2b068fc378daa952ba7f163c4a11628f55a4df523b3ef60405160405180910390a4611c29600083836001611721565b5050565b50505050565b6000808273ffffffffffffffffffffffffffffffffffffffff163b119050919050565b606060006001611c6584611e72565b01905060008167ffffffffffffffff811115611c8457611c836122d8565b5b6040519080825280601f01601f191660200182016040528015611cb65781602001600182028036833780820191505090505b509050600082602001820190505b600115611d19578080600190039150507f3031323334353637383961626364656600000000000000000000000000000000600a86061a8153600a8581611d0d57611d0c61335c565b5b04945060008503611cc4575b819350505050919050565b6000611d2f826106a3565b9050611d3f8160008460016116a0565b611d48826106a3565b90506004600083815260200190815260200160002060006101000a81549073ffffffffffffffffffffffffffffffffffffffff02191690556001600360008373ffffffffffffffffffffffffffffffffffffffff1673ffffffffffffffffffffffffffffffffffffffff168152602001908152602001600020600082825403925050819055506002600083815260200190815260200160002060006101000a81549073ffffffffffffffffffffffffffffffffffffffff021916905581600073ffffffffffffffffffffffffffffffffffffffff168273ffffffffffffffffffffffffffffffffffffffff167fddf252ad1be2c89b69c2b068fc378daa952ba7f163c4a11628f55a4df523b3ef60405160405180910390a4611e6e816000846001611721565b5050565b600080600090507a184f03e93ff9f4daa797ed6e38ed64bf6a1f0100000000000000008310611ed0577a184f03e93ff9f4daa797ed6e38ed64bf6a1f0100000000000000008381611ec657611ec561335c565b5b0492506040810190505b6d04ee2d6d415b85acef81000000008310611f0d576d04ee2d6d415b85acef81000000008381611f0357611f0261335c565b5b0492506020810190505b662386f26fc100008310611f3c57662386f26fc100008381611f3257611f3161335c565b5b0492506010810190505b6305f5e1008310611f65576305f5e1008381611f5b57611f5a61335c565b5b0492506008810190505b6127108310611f8a576127108381611f8057611f7f61335c565b5b0492506004810190505b60648310611fad5760648381611fa357611fa261335c565b5b0492506002810190505b600a8310611fbc576001810190505b80915050919050565b508054611fd190612708565b6000825580601f10611fe35750612002565b601f0160209004906000526020600020908101906120019190612005565b5b50565b5b8082111561201e576000816000905550600101612006565b5090565b6000604051905090565b600080fd5b600080fd5b60007fffffffff0000000000000000000000000000000000000000000000000000000082169050919050565b61206b81612036565b811461207657600080fd5b50565b60008135905061208881612062565b92915050565b6000602082840312156120a4576120a361202c565b5b60006120b284828501612079565b91505092915050565b60008115159050919050565b6120d0816120bb565b82525050565b60006020820190506120eb60008301846120c7565b92915050565b600081519050919050565b600082825260208201905092915050565b60005b8381101561212b578082015181840152602081019050612110565b60008484015250505050565b6000601f19601f8301169050919050565b6000612153826120f1565b61215d81856120fc565b935061216d81856020860161210d565b61217681612137565b840191505092915050565b6000602082019050818103600083015261219b8184612148565b905092915050565b6000819050919050565b6121b6816121a3565b81146121c157600080fd5b50565b6000813590506121d3816121ad565b92915050565b6000602082840312156121ef576121ee61202c565b5b60006121fd848285016121c4565b91505092915050565b600073ffffffffffffffffffffffffffffffffffffffff82169050919050565b600061223182612206565b9050919050565b61224181612226565b82525050565b600060208201905061225c6000830184612238565b92915050565b61226b81612226565b811461227657600080fd5b50565b60008135905061228881612262565b92915050565b600080604083850312156122a5576122a461202c565b5b60006122b385828601612279565b92505060206122c4858286016121c4565b9150509250929050565b600080fd5b600080fd5b7f4e487b7100000000000000000000000000000000000000000000000000000000600052604160045260246000fd5b61231082612137565b810181811067ffffffffffffffff8211171561232f5761232e6122d8565b5b80604052505050565b6000612342612022565b905061234e8282612307565b919050565b600067ffffffffffffffff82111561236e5761236d6122d8565b5b61237782612137565b9050602081019050919050565b82818337600083830152505050565b60006123a66123a184612353565b612338565b9050828152602081018484840111156123c2576123c16122d3565b5b6123cd848285612384565b509392505050565b600082601f8301126123ea576123e96122ce565b5b81356123fa848260208601612393565b91505092915050565b6000806040838503121561241a5761241961202c565b5b600061242885828601612279565b925050602083013567ffffffffffffffff81111561244957612448612031565b5b612455858286016123d5565b9150509250929050565b612468816121a3565b82525050565b6000602082019050612483600083018461245f565b92915050565b6000806000606084860312156124a2576124a161202c565b5b60006124b086828701612279565b93505060206124c186828701612279565b92505060406124d2868287016121c4565b9150509250925092565b6000602082840312156124f2576124f161202c565b5b600061250084828501612279565b91505092915050565b612512816120bb565b811461251d57600080fd5b50565b60008135905061252f81612509565b92915050565b6000806040838503121561254c5761254b61202c565b5b600061255a85828601612279565b925050602061256b85828601612520565b9150509250929050565b600067ffffffffffffffff8211156125905761258f6122d8565b5b61259982612137565b9050602081019050919050565b60006125b96125b484612575565b612338565b9050828152602081018484840111156125d5576125d46122d3565b5b6125e0848285612384565b509392505050565b600082601f8301126125fd576125fc6122ce565b5b813561260d8482602086016125a6565b91505092915050565b600080600080608085870312156126305761262f61202c565b5b600061263e87828801612279565b945050602061264f87828801612279565b9350506040612660878288016121c4565b925050606085013567ffffffffffffffff81111561268157612680612031565b5b61268d878288016125e8565b91505092959194509250565b600080604083850312156126b0576126af61202c565b5b60006126be85828601612279565b92505060206126cf85828601612279565b9150509250929050565b7f4e487b7100000000000000000000000000000000000000000000000000000000600052602260045260246000fd5b6000600282049050600182168061272057607f821691505b602082108103612733576127326126d9565b5b50919050565b7f4552433732313a20617070726f76616c20746f2063757272656e74206f776e6560008201527f7200000000000000000000000000000000000000000000000000000000000000602082015250565b60006127956021836120fc565b91506127a082612739565b604082019050919050565b600060208201905081810360008301526127c481612788565b9050919050565b7f4552433732313a20617070726f76652063616c6c6572206973206e6f7420746f60008201527f6b656e206f776e6572206f7220617070726f76656420666f7220616c6c000000602082015250565b6000612827603d836120fc565b9150612832826127cb565b604082019050919050565b600060208201905081810360008301526128568161281a565b9050919050565b7f4552433732313a2063616c6c6572206973206e6f7420746f6b656e206f776e6560008201527f72206f7220617070726f76656400000000000000000000000000000000000000602082015250565b60006128b9602d836120fc565b91506128c48261285d565b604082019050919050565b600060208201905081810360008301526128e8816128ac565b9050919050565b7f4552433732313a20696e76616c696420746f6b656e2049440000000000000000600082015250565b60006129256018836120fc565b9150612930826128ef565b602082019050919050565b6000602082019050818103600083015261295481612918565b9050919050565b7f4552433732313a2061646472657373207a65726f206973206e6f74206120766160008201527f6c6964206f776e65720000000000000000000000000000000000000000000000602082015250565b60006129b76029836120fc565b91506129c28261295b565b604082019050919050565b600060208201905081810360008301526129e6816129aa565b9050919050565b7f4f776e61626c653a206e6577206f776e657220697320746865207a65726f206160008201527f6464726573730000000000000000000000000000000000000000000000000000602082015250565b6000612a496026836120fc565b9150612a54826129ed565b604082019050919050565b60006020820190508181036000830152612a7881612a3c565b9050919050565b7f43726564656e6369616c416c756d6e6f3a20456c20746f6b656e206e6f20657860008201527f697374652e000000000000000000000000000000000000000000000000000000602082015250565b6000612adb6025836120fc565b9150612ae682612a7f565b604082019050919050565b60006020820190508181036000830152612b0a81612ace565b9050919050565b7f4f776e61626c653a2063616c6c6572206973206e6f7420746865206f776e6572600082015250565b6000612b476020836120fc565b9150612b5282612b11565b602082019050919050565b60006020820190508181036000830152612b7681612b3a565b9050919050565b7f45524337323155524953746f726167653a2055524920736574206f66206e6f6e60008201527f6578697374656e7420746f6b656e000000000000000000000000000000000000602082015250565b6000612bd9602e836120fc565b9150612be482612b7d565b604082019050919050565b60006020820190508181036000830152612c0881612bcc565b9050919050565b60008190508160005260206000209050919050565b60006020601f8301049050919050565b600082821b905092915050565b600060088302612c717fffffffffffffffffffffffffffffffffffffffffffffffffffffffffffffffff82612c34565b612c7b8683612c34565b95508019841693508086168417925050509392505050565b6000819050919050565b6000612cb8612cb3612cae846121a3565b612c93565b6121a3565b9050919050565b6000819050919050565b612cd283612c9d565b612ce6612cde82612cbf565b848454612c41565b825550505050565b600090565b612cfb612cee565b612d06818484612cc9565b505050565b5b81811015612d2a57612d1f600082612cf3565b600181019050612d0c565b5050565b601f821115612d6f57612d4081612c0f565b612d4984612c24565b81016020851015612d58578190505b612d6c612d6485612c24565b830182612d0b565b50505b505050565b600082821c905092915050565b6000612d9260001984600802612d74565b1980831691505092915050565b6000612dab8383612d81565b9150826002028217905092915050565b612dc4826120f1565b67ffffffffffffffff811115612ddd57612ddc6122d8565b5b612de78254612708565b612df2828285612d2e565b600060209050601f831160018114612e255760008415612e13578287015190505b612e1d8582612d9f565b865550612e85565b601f198416612e3386612c0f565b60005b82811015612e5b57848901518255600182019150602085019450602081019050612e36565b86831015612e785784890151612e74601f891682612d81565b8355505b6001600288020188555050505b505050505050565b7f4552433732313a207472616e736665722066726f6d20696e636f72726563742060008201527f6f776e6572000000000000000000000000000000000000000000000000000000602082015250565b6000612ee96025836120fc565b9150612ef482612e8d565b604082019050919050565b60006020820190508181036000830152612f1881612edc565b9050919050565b7f4552433732313a207472616e7366657220746f20746865207a65726f2061646460008201527f7265737300000000000000000000000000000000000000000000000000000000602082015250565b6000612f7b6024836120fc565b9150612f8682612f1f565b604082019050919050565b60006020820190508181036000830152612faa81612f6e565b9050919050565b7f4552433732313a20617070726f766520746f2063616c6c657200000000000000600082015250565b6000612fe76019836120fc565b9150612ff282612fb1565b602082019050919050565b6000602082019050818103600083015261301681612fda565b9050919050565b7f4552433732313a207472616e7366657220746f206e6f6e20455243373231526560008201527f63656976657220696d706c656d656e7465720000000000000000000000000000602082015250565b60006130796032836120fc565b91506130848261301d565b604082019050919050565b600060208201905081810360008301526130a88161306c565b9050919050565b600081905092915050565b60006130c5826120f1565b6130cf81856130af565b93506130df81856020860161210d565b80840191505092915050565b60006130f782856130ba565b915061310382846130ba565b91508190509392505050565b7f43726564656e6369616c416c756d6e6f3a204c61732063726564656e6369616c60008201527f6573206e6f20736f6e207472616e7366657269626c65732e0000000000000000602082015250565b600061316b6038836120fc565b91506131768261310f565b604082019050919050565b6000602082019050818103600083015261319a8161315e565b9050919050565b600081519050919050565b600082825260208201905092915050565b60006131c8826131a1565b6131d281856131ac565b93506131e281856020860161210d565b6131eb81612137565b840191505092915050565b600060808201905061320b6000830187612238565b6132186020830186612238565b613225604083018561245f565b818103606083015261323781846131bd565b905095945050505050565b60008151905061325181612062565b92915050565b60006020828403121561326d5761326c61202c565b5b600061327b84828501613242565b91505092915050565b7f4552433732313a206d696e7420746f20746865207a65726f2061646472657373600082015250565b60006132ba6020836120fc565b91506132c582613284565b602082019050919050565b600060208201905081810360008301526132e9816132ad565b9050919050565b7f4552433732313a20746f6b656e20616c7265616479206d696e74656400000000600082015250565b6000613326601c836120fc565b9150613331826132f0565b602082019050919050565b6000602082019050818103600083015261335581613319565b9050919050565b7f4e487b7100000000000000000000000000000000000000000000000000000000600052601260045260246000fdfea26469706673582212209a1ce2debd57d25e97ef0ca2d195451783705714b0d8ddc520794618380adab764736f6c634300081c0033",
  "linkReferences": {},
  "deployedLinkReferences": {}
}